:020000040800F2
:1000000080090020D502000801500008394B000883
:10001000FD4F00089D2000086D5A000800000000F8
:10002000000000000000000000000000DF50000899
:10003000BB21000800000000DD5000082D51000821
:10004000EF020008EF020008EF020008EF020008CC
:10005000EF020008EF020008EF020008EF020008BC
:10006000EF020008EF020008EF020008EF020008AC
:10007000EF020008EF020008EF020008EF0200089C
:10008000EF020008EF020008311D0008EF0200082F
:10009000EF020008EF020008EF020008EF0200087C
:1000A000EF020008EF020008EF020008EF0200086C
:1000B000EF020008FD510008EF020008EF020008FF
:1000C000EF020008EF020008EF020008EF0200084C
:1000D000EF0200085D5A0008EF020008EF02000876
:1000E000EF020008EF020008EF020008EF0200082C
:1000F000EF020008EF020008EF020008EF0200081C
:10010000EF020008EF020008EF020008EF0200080B
:10011000EF020008EF020008EF020008EF020008FB
:10012000EF020008EF020008EF020008EF020008EB
:10013000EF020008EF020008EF020008EF020008DB
:10014000EF020008EF020008EF020008EF020008CB
:10015000EF020008EF020008A1200008EF020008EB
:10016000EF020008EF020008EF020008EF020008AB
:10017000EF020008EF020008EF0200080000000094
:10018000EF020008EF02000800F002F800F092F819
:100190000AA090E8000C82448344AAF10107DA45E2
:1001A00001D100F087F8AFF2090EBAE80F0013F0A2
:1001B000010F18BFFB1A43F00103184754BF030097
:1001C00074BF0300103A24BF78C878C1FAD8520728
:1001D00024BF30C830C144BF04680C6070470000C1
:1001E0000023002400250026103A28BF78C1FBD840
:1001F000520728BF30C148BF0B6070476E2900F01E
:100200000582702900F04783662906F088876529F2
:1002100006F08587672906F08287612906F08187C5
:1002200003681B0A28BF41F08001692900F0B281F0
:10023000642900F0AF81752900F0AC816F2900F0CE
:10024000D482782900F01383E92900F06F82E42931
:1002500000F06C82F52900F06982EF2900F0D1826C
:10026000F82900F012830368DB0928BF41F0800100
:10027000632901F01980732901F01E80E32901F040
:100280002980F32901F02E80002070471FB506F069
:100290003CFF01F07DF804000020002106F08AFAFE
:1002A000401C60600020002106F06EFAE0601FBD77
:1002B00010B510BD01F03EF81146FFF7E7FF06F05C
:1002C0001FF801F01BF903B4FFF7F2FF03BC01F0C4
:1002D0005FF900000948804709480047FEE7FEE74C
:1002E000FEE7FEE7FEE7FEE7FEE7FEE7FEE7FEE7E6
:1002F00004480549054A064B70470000E9510008CB
:10030000890100088003002080090020800500206A
:100310008005002053EA020C00F069802DE9F04BC3
:100320004FF00006002B1FBFB3FA83F503FA05F464
:1003300024FA05F65E4012BF1643B2FA82F502FABD
:1003400005F4C5F120051EBF22FA05FC44EA0C04A1
:10035000203556EA044C4FEA144418BF641C4FF091
:1003600000084FF00009904271EB030C39D30029CB
:1003700019BFB1FA81F701FA07F6B0FA80F700FA6F
:1003800007F6C7F120071EBF20FA07FC46EA0C0655
:100390002037B6FBF4FCA7EB0507103F07F01F0B57
:1003A000CBF120060CFA0BFB2CFA06F644BFB34641
:1003B0000026202FA4BF5E464FF0000B5BEA060C20
:1003C00008BF4FF0010B19EB0B09ABFB027C48EBAC
:1003D0000608C01B06FB02CC0BFB03CC71EB0C0127
:1003E000C1E70B46024641464846BDE8F08B13B5CF
:1003F0004FF000004FF00001AFF30080BDE81C405B
:10040000704700001CB50C46064B7B4469460090C3
:10041000204600F014F904460020694600F022F955
:1004200020461CBD5702000010B5431C02E010F826
:10043000011B71B18107FAD14FF0013202C88C1A49
:100440008C4314EAC211F9D0C01A0A0603D0C01EA8
:1004500010BDC01A10BD0A0401D0801E10BD0902D3
:10046000FCD0401E10BD4FF0000200B5134694466C
:100470009646203922BFA0E80C50A0E80C50B1F1FC
:100480002001BFF4F7AF090728BFA0E80C5048BF10
:100490000CC05DF804EB890028BF40F8042B08BFAE
:1004A000704748BF20F8022B11F0804F18BF00F8AA
:1004B000012B704770477047704710B500F0BAFACB
:1004C000006810BD10B5044600F0B4FA046010BD19
:1004D00070B5044685690068C10601D5302600E084
:1004E0002026C00707D070BDD4E9012130469047CF
:1004F000206A401C20626D1EF6D570BD70B50446A2
:1005000085690078C00707D170BDD4E9012120209A
:100510009047206A401C20626D1EF6D570BD0968A8
:100520004A0501D540B27047C905FCD500B27047F5
:1005300009684A0501D5C0B27047C905FCD580B22B
:10054000704770B50C460546012A05D0287880060C
:1005500000D5EA69002302E0012305E05B1C934219
:1005600002D2E05C0028F9D1A869E618C01AA86197
:10057000286A184428622846FFF7AAFF04E0D5E954
:10058000012114F8010B9047B442F8D32846FFF735
:10059000B5FF70BD2DE9F0410646002410687529AD
:1005A000314616A510D0FFF7BAFF002802DA404204
:1005B00013A507E031688A0701D512A502E04907B3
:1005C00004D511A5012401E0FFF7B2FF00210A22A2
:1005D00006F1240709E0B0FBF2FCB0FBF2F302FBEA
:1005E0001C00303078541846491C0028F3D12346AB
:1005F0002A463046BDE8F04100F065BA0000000030
:100600002D0000002B00000020000000116802688F
:10061000006A530501D508700AE0D30501D50880AA
:1006200006E0130603D5C217C1E9000200E0086026
:100630000120704701694A1C02610878704700B5C3
:100640008FB0CDE901310021059105497944CDE90B
:1006500003101146684600F029F90FB000BD0000F4
:10066000E5FFFFFF0A6802F8010B0A60704700000F
:100670002DE9FF5F15468A460446DFF8AC80F84452
:100680000027D8E900103E46CDE9001010E03AF806
:1006900016106A4602A800F029FE411C07D02178F6
:1006A000890603D5E269391891420DD80744761CB2
:1006B0002078800602D5E069B84205DDAE42E6DB6F
:1006C0003AF816000028E2D1A069C01BA0612046BC
:1006D000FFF7FEFED8E90010CDE90010002017E07A
:1006E0003AF818106A4602A800F000FEB0F1FF3F89
:1006F00081460BD000250DF1080B05E0D4E901215E
:100700001BF8050090476D1C4D45F7D308F101001B
:10071000B0428046E4DB206A384420622046FFF77E
:10072000EDFEBDE8FF9F000092B903002DE9F04106
:100730008046D21D22F007020025D2E90002F529E9
:1007400015A614D0011E72F1000106DA0023D0EBC9
:10075000030063EB020211A608E0D8F800108B0733
:1007600001D50FA602E0490701D50EA601251146C5
:10077000002408F1240704E000F060F930323A5513
:10078000641C50EA0102F7D12B463246214640460E
:10079000BDE8F04100F097B9000000002D00000016
:1007A0002B0000002000000030B4002100F12404E0
:1007B00008E002F00705D208303542EA4372DB0850
:1007C0006554491C52EA0305F3D10468002310A2C2
:1007D000250707D5A40600D421B1C46901230DA2C1
:1007E000641EC46130BC00F06EB910B504462146E9
:1007F0001068FFF79DFE02462046BDE8104000232A
:10080000D2E7D21D22F00701D1E90023CCE7000096
:100810000000000030000000F0B40D46018809051A
:1008200002D5214C7C4402E01F4C7C440E34002154
:1008300000F1240608E002F00F071209E75D42EA22
:1008400003721B097754491C52EA0307F3D102785B
:100850000023120704D5702D06D009B102231134EC
:100860002246F0BC00F02FB901231034F8E770B530
:1008700004460D4621461068FFF75AFE02462946F7
:100880002046BDE870400023C6E7D21D22F00703D2
:10089000D3E90023C0E70368126843F02003036034
:1008A0000823C3610023B7E7F4B703002DE9F05F25
:1008B000894604464FF0000ADFF874B1FB44C0F8E3
:1008C00020A02046E1688847002874D0252806D05B
:1008D000D4E901219047206A401C2062F1E70026FC
:1008E0005F462046E16888472028054607DB312D12
:1008F00005D2781910F8200C08B10643F1E7B007CB
:1009000001D526F00406C4F81CA00027C4F818A0DE
:100910002A2D09D0284605F073F938B304EB87086F
:10092000303DC8F8185019E059F8041B204604EB74
:1009300087029161E1688847012F054618D1E06977
:10094000002820DA26F020061DE0D8F8180000EB79
:10095000800005EB40003038C8F818002046E168F8
:100960008847054605F04CF90028EED1012F0AD042
:100970002E2D08D12046E16888477F1C0546022FAE
:1009800046F02006C4DBA069002803DA404246F0A6
:100990000106A061F00701D026F010066C2D0BD0E7
:1009A000682D09D04C2D39D06A2D35D0742D35D015
:1009B0007A2D33D016E038E0E1682F46204688478C
:1009C000B842054609D16C2F26D04FF48060E1680B
:1009D000064320468847054604E06C2F1AD04FF4A2
:1009E000807006430DB3A5F14100192802D82035C7
:1009F00046F400664A462946204626604E46FFF7E2
:100A0000FDFB80B101280BD0F61D26F0070000F198
:100A1000080956E74020E4E78020D8E70020D6E721
:100A200006F104094DE7284652E7206ABDE8F09F29
:100A300084B70300004870471C03002030B5B0F1B4
:100A40000A024FEA900E71F100034EEA817EB0EB8C
:100A50000E0061EB91014FEA101E4EEA017E10EB91
:100A60000E0041EB11114FEA102E4EEA016E10EB11
:100A70000E0041EB11214FEA104E4EEA014E10EBF1
:100A80000E0041EB1141401841F100014FEAD00046
:100A900040EA41704FEAD10110EB80054FEA810432
:100AA00044EA907444EB01046D1944EB0404521BB6
:100AB000A3414FF0000348BF0A3200D530BD401CAF
:100AC00041F1000130BD2DE9F0470D4699469246AF
:100AD000044600F124080168880604D5E06921F085
:100AE0001001216000E00120A84201DD471B00E069
:100AF0000027A1697A1902EB0900081AA061207881
:100B0000C00602D42046FFF7E3FC002608E0D4E943
:100B100001211AF806009047206A401C761C2062CA
:100B20004E45F4DB2078C0060AD52046FFF7D0FCFE
:100B300006E0D4E9012130209047206A401C206261
:100B4000381EA7F10107F4DC07E0D4E9012118F809
:100B500005009047206A401C2062281EA5F101056F
:100B6000F3DC2046FFF7CAFC2078000602D50220FD
:100B7000BDE8F0870120FBE770472DE9FF4F0C46E9
:100B80001E464FF0FF378BB0D2E90001DDF86080E0
:100B90000A908A46C1F30A5505B93D460021084628
:100BA0004FF00000BAF1000F00F4400005DA00EB4E
:100BB00080004FF4400101EA50004FEA9059B9F12A
:100BC000010F00DDB9460A9850EA4A000ED044F6FB
:100BD0001050A5F2FF3545432F14B8F1000F1ED079
:100BE0007542291E1EDDC9F100021CE0B8F1010F9B
:100BF0004FF0000001D0302103E0F24305E0215422
:100C0000401CB042FBDB30460022002121540B99EE
:100C1000C1F80880C1E900200FB0BDE8F08FBD1B0E
:100C20006D1CDEE74A4600DA694206A800F0F4FBD4
:100C300006AB93E8070003AB83E8070050460A9928
:100C400000F0ADFC8DE80700A0F500501F380090C3
:100C50000398002D0ADD42F21F014A460844002392
:100C600003A90390684600F016FF09E0A0F50050C4
:100C70004A461F38002303A90390684600F020FF6E
:100C80008DE807000004000C03D04FF0FF3041084E
:100C900000E01046B8F1000F03D000220092154684
:100CA0001EE0751E05D4FFF7C9FE303262556D1E79
:100CB000F9D5B3460122084302D000227F1C04E08C
:100CC0002078302801D100227F1E002A099784D085
:100CD0001DE0112D07DAFFF7B1FE303262556D1CB1
:100CE00050EA0102F5D1084302D00098C8B10EE0E5
:100CF0000021681E05E0235C625C63542254401EA0
:100D0000491C8142F7DBAB46A81B401E099000201E
:100D100004F80B000B98099AC0F80880C0E9002B72
:100D20007AE711264FF0000857E72DE9F04F884683
:100D30000446D21D22F0070191B0D1E90001CDE9AE
:100D40000A0104F095FE02460B98C00F01D02D2039
:100D500007E02068810701D52B2002E0202101EA6D
:100D6000C000032A099001D0072A05DB034641464B
:100D7000204600F011FB0BE12078800601D5E069E8
:100D800000E00620B8F1650F814606D0B8F1660F85
:100D900018D0B8F1670F70D131E00020B9F1110F10
:100DA000009001DB112301E009F101030AAA01A966
:100DB0000CA8FFF7E2FEDDE90C70002609F1010541
:100DC000834647E001204B4600904FF000470AAAB7
:100DD00001A90CA8FFF7D1FEDDE90DB00C995D4625
:100DE000002610B909F101000D18B9EB050003D474
:100DF000C0F1FF3609F10105A5EB09002BE0B9F1BF
:100E0000010F01DA4FF001090020B9F1110F009034
:100E1000484601DD112300E003460AAA01A90CA8F7
:100E2000FFF7ABFEDDE90C704D46002683462078C7
:100E300000070AD4AB4500DA5D4601A8012D04DDA8
:100E4000411911F8011C302907D04F4502DA17F17A
:100E5000040F04DA012082460FE06D1EEEE7002F3A
:100E600002DCED1B3E4403E0781CA84200DD7D1C43
:100E7000B81B00F1010A4FF000472078000703D4A7
:100E8000AA4501DB4FF0FF3A0021B7F1004F0DF109
:100E900043088DF8431024D002202B23002F01DAC1
:100EA0007F422D230A21021EA0F1010000DC5FB168
:100EB00097FBF1FC97FBF1F201FB1C7C17460CF150
:100EC000300C08F801CDEEE7A8F10100037021888D
:100ED000090501D5452100E06521A0F1010800F8D0
:100EE000011C09980FA9A1EB0807FF1D00B1012003
:100EF000411901EBEA70A1693844081A401EA0614B
:100F00002078C00602D42046FFF7E2FA099828B1FB
:100F1000D4E901219047206A401C20622078C00655
:100F200022D52046FFF7D4FA1EE0002E04DBB3459D
:100F300002DD01A8805D00E03020D4E90121904766
:100F4000206A401C2062761CAAF101005FEA000AB8
:100F50000AD100F01DFAC0680168405CD4E90121A3
:100F60009047206A401C2062281EA5F10105DCDCA8
:100F700007E0D4E9012118F8010B9047206A401CD2
:100F80002062381EA7F10107F3DC2046FFF7B6FA0E
:100F9000032011B041E600002DE9F04F04460D4654
:100FA000D21D22F0070089B0D0E9009748463946A3
:100FB00004F05EFD0246F80F01D02D2307E0206803
:100FC000810701D52B2302E0202101EAC0038DF81F
:100FD00020300BB1012000E00020032A824601D01E
:100FE000072A04DB2946204600F0D6F93FE12078A5
:100FF000800601D40D2500E0E569C7F30A560D2DE2
:1010000049DA00214FEA175B08464FF00000002F35
:1010100000F4400007DA00EB80004FF4400100EBE1
:10102000D07001EA60008115012901DD4FF0FF3128
:1010300000224FEA850CBCF1180F06D31346ACF121
:1010400018004FF08052C24003E04FF4801323FA9F
:101050000CF30CF10C0CBCF1200F04D3ACF1200C00
:1010600009FA0CF001E007FA0CF000294FF00048F3
:1010700001DD18B90FE00ED140450CD319EB020980
:101080005F4121B9404502D19F4329EA0209BBEBE8
:10109000175F00D0761C2088000502D57B48784475
:1010A00002E07A487844193808AA302302F80A3056
:1010B000037C0AF10101002E0AF1020A53546A4628
:1010C00002DC4FF0300101E04FF031014FF0010838
:1010D0008DF8001002D0A6F2FF3603E059EA47016E
:1010E00000D06B4E002D02DC2178090704D54FF0AB
:1010F00002082E218DF80110C44600210BE0C7F331
:1011000003433F01C35C491C6D1E02F808300529EA
:1011100008F1010801DA002DF1DC00210CE000EB00
:101120001973491C1B786D1E082902F808304FEA14
:10113000091908F1010801DA002DF0DC21688B069D
:1011400002D516E0A8F10108E04505DD02EB080331
:1011500013F8013C302BF5D0B8F1000F09DD02EB9C
:10116000080313F8013C2E2B03D1090701D4A8F181
:101170000108002D05DD3E2102F808106D1E08F162
:101180000108407C002E02F8080008F1010804DA8A
:101190002D20764202F8080002E02B2002F8080019
:1011A0000A214FF47A70864208F101080BDB96FBA6
:1011B000F0F3303302F8083096FBF0F308F1010841
:1011C00000FB136601E0642E0CDB642096FBF0F359
:1011D000303302F8083096FBF0F308F1010800FB09
:1011E000136601E00A2E06DB96FBF1F0303002F8C0
:1011F000080008F1010896FBF1F001FB10603030A7
:1012000002F80800A16908F1010808EB050202EBE9
:101210000A00081AA0612078C00602D42046FFF711
:1012200057F9216A08AE01EB0A00206204E0D4E914
:10123000012116F8010B9047BAF1010AF7D2207884
:10124000C00602D52046FFF743F96E4609E016F8BE
:10125000010B3E280FD0D4E901219047206A401CA1
:101260002062B8F10108F2D22046FFF747F909B031
:101270000320BDE8F08F206A2844206203E0D4E90F
:101280000121302090476D1EEBD3F8E7C6AF030075
:1012900002FCFFFF10B5436913B1AFF3008001E01A
:1012A000FFF74FF9012010BD127800F124010A70F8
:1012B00000224A700122EDE711684FF0FF32E9E7A2
:1012C00010B5436913B1AFF3008001E0FFF7D0F927
:1012D000012010BD128800F1240182840022C28402
:1012E0000122EDE711684FF0FF32E9E770B51646CD
:1012F0000C46054600F044F8036893F80101012804
:1013000006D0FF2C0FD8185D68B101202C7070BD7D
:10131000D3F807013246214603F207130344284657
:10132000BDE8704018474FF0FF3070BD004870476F
:101330001C0300207546FFF7F9FFAE46050069461D
:10134000534620F00700854618B020B5FEF7D0FFC1
:10135000BDE820404FF000064FF000074FF00008B6
:101360004FF0000B21F00701AC46ACE8C009ACE837
:10137000C009ACE8C009ACE8C0098D467047000060
:1013800010B500F005F8001D10BD00BF2954000085
:10139000004870473C0300202DE9F0411F460446F9
:1013A00003260168072A01F4006004DB08B116A5D2
:1013B00005E016A503E008B115A500E015A521F08C
:1013C00010002060A069C01EA0610FB1401EA06186
:1013D0002046FFF77DF84FB1D4E901213846904708
:1013E000206A401C2062C01C206206E0206AFAE7E6
:1013F000D4E9012115F8010B9047761EF8D220465A
:10140000FFF77CF8BDE8F0814E414E006E616E0042
:10141000494E4600696E66002DE9F0478146164642
:101420008AB0354878440DC88DE80D0032487844BC
:10143000801C03AC0DC884E80D0041F69B300844C5
:10144000372190FBF1F290FBF1F5A5F1800501FB4E
:1014500012041B3C02D56442012000E00020DFF8AA
:1014600098A080460027FA44AAF1BE0A0EE0E007E1
:101470000AD03246684607EB470101230AEB810197
:1014800000F01EFB8DE8070064107F1C002CEED1DD
:10149000194F7F44AE3F19E0E80715D007EB041061
:1014A0000DF1180A90E80E008AE80E00C068F042BC
:1014B00001D1981908903246012306A903A800F02B
:1014C000FFFA03AB83E807006D10641C002DE3D125
:1014D0004FF0010332466946B8F1000F03A802D06D
:1014E00000F0D9FA01E000F0EBFAC9E90001C9F80F
:1014F00008200AB0BDE8F087D0AC030010B5044660
:10150000AFF300802046BDE81040FEF7DCBE0000CF
:101510004FF0013C50F8042B51F8043B9A4221D182
:10152000A2EB0C03934313EACC1317D150F8042B0E
:1015300051F8043B9A4215D1A2EB0C03934313EAF2
:10154000CC130BD150F8042B51F8043B9A4209D12B
:10155000A2EB0C03934313EACC13DBD04FF0000053
:10156000704700BFD01A01BAB1FA81F101F0180139
:1015700022FA01F0CB40C1F12001DBB2C0B2C01AA7
:101580002CFA01F3D11A914311EAC311E6D1704745
:1015900001491820ABBEFEE72600020070475FEA53
:1015A000400C08BF91F0000F4FEA8C234FEAC12294
:1015B00043EA51514FEA1C5018BF00F5F0404FEA82
:1015C000300018BF41F000415FEA6C5C00F02980F8
:1015D000BCF1FF3F08BF40F080407047130C06BFCE
:1015E00012044FF0100C4FF0000C130E04BF120247
:1015F0000CF1080C130F04BF12010CF1040C930F33
:1016000004BF92000CF1020CD30F04BF52000CF186
:10161000010C11464FF00002A0F11F00A0EB0C00DE
:10162000704711F0004F08BF704731F000413FF4A0
:10163000D5AF0B0C06BF09044FF0100C4FF0000C97
:101640000B0E04BF09020CF1080C0B0F04BF0901BB
:101650000CF1040C8B0F04BF89000CF1020CCB0FB2
:1016600004BF49000CF1010CCCF12003A0EB0C00ED
:1016700022FA03F302FA0CF241EA030100F101003D
:10168000704720F07F4C80EA030023F07F47ACEBEB
:10169000070303F57C5300F0004003F1FF032DE93D
:1016A00080494FEA154B09B44FEA144325EA0B4E23
:1016B00024EA03480FF2042606EB132749083E7874
:1016C0005FEA320203FB0667C7F5000707FB06F671
:1016D0004FEA54374FEAD64606F1020607FB066C7E
:1016E000CCF1005C4FEA1C472CEA074C07FB06F4E0
:1016F0000CFB06F504EB15464FEA961634BF0020A6
:101700004FF000404FEAD13706FB07FC4FEA1C4C74
:101710000CFB0BF7D21B03FB0CF761EB07010CFB77
:101720000EF7B0EB074072EB17420CFB08F734BF23
:10173000A2EB0742B2EB074261EB17414FEA0C44C0
:101740004FEA910706FB07FC4FEA1C4C0CFB0BF71A
:10175000B0EBC74072EB573203FB0CF734BFA2EB80
:10176000C742B2EBC74261EB57310CFB0EF7B0EB4F
:10177000C70072EB57720CFB08F734BFA2EBC7022D
:10178000B2EBC70261EB5771039F4FEA816141EAF7
:10179000921104EBCC044FEAD1374FEA826206FB88
:1017A00007FC42EA90124FEA80604FEA1C4C0CFBA7
:1017B0000BF7D21B03FB0CF761EB07010CFB0EF7D9
:1017C000B0EB074072EB17420CFB08F734BFA2EBFB
:1017D0000742B2EB074261EB17414FEA8C554FEAE3
:1017E000910704EB9C2406FB07FC4FEA1C4C0CFB06
:1017F0000BF7B0EBC74072EB573203FB0CF734BF6B
:10180000A2EBC742B2EBC74261EB57310CFB0EF7BC
:10181000B0EBC70072EB57720CFB08F734BFA2EBBA
:10182000C702B2EBC70261EB577115EB4C254FEACB
:10183000816141EA92114FEA82624FEAD13742EA6E
:10184000901206FB07FC44F100044FEA80604FEA67
:101850001C4C0CFB0BF7D21B03FB0CF761EB0701D5
:101860000CFB0EF7B0EB074072EB17420CFB08F7CE
:1018700034BFA2EB0742B2EB074261EB174115EB15
:101880001C154FEA813141EA92414FEA823242EA25
:1018900090424FEA80304FEA0C7644F1000448EA67
:1018A00003434EEA0B484FF0000EB2EB080C71EB0D
:1018B000030724BF624639464EEB0E0E4FF0000B75
:1018C0000018524149414BEB0B0BB2EB080C71EB8A
:1018D00003077BF1000B24BF624639464EEB0E0E28
:1018E0004FF0000B0018524149414BEB0B0BB2EB90
:1018F000080C71EB03077BF1000B24BF62463946ED
:101900004EEB0E0E51EA020718BF46F0010616EB29
:101910000E7655F1000254F1000103D5BDE88901AE
:10192000BDE80088BDE88901BDE80048B61952410C
:1019300041EB0101A3F10103704780807F7E7D7C34
:101940007B7A7978777676757473727171706F6E51
:101950006E6D6C6C6B6A6A696868676666656464FC
:10196000636362616160605F5F5E5E5D5D5C5C5B86
:101970005B5A5A59595858575756565555555454F5
:10198000535352525251515050504F4F4F4E4E4D53
:101990004D4D4C4C4C4B4B4B4A4A4A49494948489F
:1019A00048474747474646464545454444444443DF
:1019B00043434342424242414141002B9C4630D482
:1019C00077002BD01CB54FEA370703B44FF0100057
:1019D0004FF01001BAF1000F06D0BCF1000FDCBFD0
:1019E00040F0080040F008014FF000000FBCBDE8D7
:1019F00010400BF1010BBBF1010F08BF5FEA1707A5
:101A000022BF12F1010211F101014FF0004143F137
:101A1000000300F0004043EA00007047F9D3570884
:101A2000D0E746EA064613F1400F4FEA16461FDD9F
:101A300013F1200FDFBF16430A46002120335B421B
:101A4000BED0C3F1200746EA064602FA07F74FEA7E
:101A5000164646EA0706C3F1200722FA03F201FA06
:101A600007F721FA03F14FF0000342EA0702A7E764
:101A700046EA020646EA06464FEA164646EA0106E6
:101A8000BCBF46EA0646360C4FF000034FF000029A
:101A90004FF0000194E72DE9804C9A46934670B4CC
:101AA00091E8380007C831EA400C48BF34EA430CDB
:101AB00003D5FFF7E6FDFFF780FFF0BCBDE8008C23
:101AC0002DE9804C9A46934670B491E8380007C8D7
:101AD00010F0804F08BF13F0804F03D100F005F8DD
:101AE000FFF76BFFF0BCBDE8008C20F07F4780EA79
:101AF000030023F07F4C07EB0C03A3F57C5300F0AD
:101B00000040A3F1FE0392F0000F00F0B38095F0C7
:101B1000000F00F077802DE901494FEA11404FEAAC
:101B2000144621EA004800FB06FC24EA064708FBAD
:101B300006F607FB08F800FB07F718EB06484CEB26
:101B4000164C4FEA124B18EB07484FEA15464CEB80
:101B5000174022EA0B4E0BFB06FC25EA06470EFB5C
:101B600006F607FB0EFE0BFB07F71EEB064E4CEBD3
:101B7000164C4FF000061EEB074E4CEB174B18EBC4
:101B80000B0840F1000018EB0E0B58EB000840F179
:101B900000008F1A4FF000013CBFC943661B14BF01
:101BA000B5EB040C00213CBFC943F61B4FEA1744B8
:101BB0004EEA8E0E27EA04454FEA1C4704FB0762F3
:101BC0002CEA074C05FB07F70CFB05F604FB0CFCA5
:101BD00016EB074642EB174216EB0C4642EB1C4253
:101BE0001BEB060658EB0202414146EA9E0601D570
:101BF000BDE80189B619524141EB0101A3F101038E
:101C0000BDE801894FEA14454FEA114724EA054629
:101C100021EA074C05FB07F406FB07F70CFB06F16E
:101C200005FB0CFC11EB074144EB17444FEA12474C
:101C300011EB0C4144EB1C4422EA074C05FB07F274
:101C400006FB07F70CFB06F605FB0CFC16EB07463C
:101C500042EB174216EB0C4642EB1C456A1854F156
:101C6000000148BF7047B619524141EB0101A3F191
:101C70000103704795F0000F37D04FEA11424FEA49
:101C8000144721EA024624EA074C02FB07F106FB4F
:101C900007F70CFB06F402FB0CFC14EB074441EBCA
:101CA00017414FEA154714EB0C4441EB1C4125EA60
:101CB000074C02FB07F506FB07F70CFB06F602FBD9
:101CC0000CFC16EB074645EB174516EB0C4645EBAF
:101CD0001C42121951F1000148BF7047B619524118
:101CE00041EB0101A3F1010370474FEA14454FEAAC
:101CF000114724EA054621EA074C05FB07F106FBDC
:101D000007F70CFB06F24FF0000605FB0CFC12EB8C
:101D1000074241EB174112EB0C4251EB1C4148BF0B
:101D20007047921841EB0101A3F1010370470000D5
:101D300010B5024800F0DCFD10BD0000840000205A
:101D400055494A6822F440324A604A6843681A4357
:101D50004A600268526822F4807203685A6002681E
:101D60005368026943EA022203685A6002685268B3
:101D700022F0407203685A600268526883681A430E
:101D800003685A600268926822F4006203689A60ED
:101D900002689268C3681A4303689A603F4B826A7C
:101DA0009A4218D00268926822F0706203689A60C2
:101DB00002689268836A1A4303689A6002689268AC
:101DC00022F0405203689A6002689268C36A1A431C
:101DD00003689A600BE00268926822F07062036800
:101DE0009A600268926822F0405203689A60026822
:101DF000926822F0020203689A6002689368027E89
:101E000043EA420203689A602022125CA2B102688F
:101E1000526842F4006203685A600268526822F411
:101E2000604203685A6002685368426A521E43EA7D
:101E3000423203685A6005E00268526822F4006288
:101E400003685A600268D26A22F470020368DA6298
:101E50000268D36A828B521E43EA02520368DA6236
:101E60000268926822F4007203689A6002689368BC
:101E700090F8302043EA422203689A600268926830
:101E800022F4806203689A6002689368426943EAB8
:101E9000822203689A607047002301400100000F0E
:101EA00010B52DED028B00F057F80848D0ED000A70
:101EB000B1EE0C1A51EE000AB0EE608AB0EE480A9C
:101EC00003F0A6FEBDEC028B10BD000070000020E8
:101ED00010B52DED028B00F03FF8B0EE408A1948A6
:101EE00090ED000A38EE400AF0EE408AB0EEE80AC3
:101EF000DFED150AB4EEE00AF1EE10FA11DDF5EEB1
:101F0000C08AF1EE10FA02DD4FF0FF3000E0012050
:101F10000E49096808440D490860084600680C49E4
:101F20000860084880ED008A90ED000A0748D0ED6F
:101F3000000AF8EEE00A9FED071A00EE810ABDECF8
:101F4000028B10BD7C0000207CD9A04074000020D2
:101F500078000020DB0FC94010B52DED028B00F09A
:101F600013F808EE100AF8EE480A9FED051A80EE05
:101F7000810ADFED040A20EE200ABDEC028B10BDC1
:101F800000008045DB0FC94010B500F055F804464D
:101F9000204610BD10B52DED048BFFF799FFB0EE74
:101FA000408A114890ED000A38EE400A0F48006858
:101FB0000F490968401A00EE900AF8EEE00A9FED1A
:101FC0000D1A00EE810AF0EE408A9FED0B0A28EE12
:101FD000800AB0EE409A044880ED008AB0EE490ACB
:101FE000BDEC048B10BD00008000002074000020B8
:101FF00078000020DB0FC94000007A4470B5044629
:10200000002504F005F96C2004F0CCF804F046F942
:10201000204604F0C7F804F041F904F0F9F86D2007
:1020200004F0C0F804F03AF9002004F08DF80546F9
:1020300004F014F9284670BD70B500240025002670
:102040000E20FFF7DBFF05460F20FFF7D7FF064600
:1020500046EA0524204670BD10B52DED028B002404
:1020600000BF08E09FED0B1AF7EE000A9FED090A8A
:1020700004F07EF9641CC82CF4DBFFF711FF06485E
:1020800080ED000AFFF70CFFB0EE408ABDEC028B3A
:1020900010BD0000000000007000002000BFFEE73F
:1020A00010B5024800F0BEFD10BD00003C0200204B
:1020B0000146087810381823B0FBF3F20848805C1A
:1020C000C865032A05D908686FF30900001D8865F3
:1020D00003E008686FF309008865886D70470000A9
:1020E00026710008014600208A6A8B69CBB932B19B
:1020F000012A0DD0022A03D0032A10D10EE000BF1E
:10210000CB6A03F08073B3F1807F00D1012007E038
:10211000CB6AB3F1C07F00D1012001E000E000BF35
:1021200034E08B69B3F5005F1AD132B1012A07D0D0
:10213000022A03D0032A11D10AE000BF01200EE0D9
:10214000CB6A03F08073B3F1807F00D1012006E0F9
:10215000CB6AB3F1C07F00D1012000E000BF15E0E1
:1021600032B1012A05D0022A04D0032A0CD103E09F
:1021700000BF00BF012008E0CB6A03F08073B3F119
:10218000807F00D1012000E000BF00BF704730B564
:102190000468246824F4802405682C600468636063
:1021A0008468402C04D10468A2600468E16003E004
:1021B0000468A1600468E26030BD704772B600BF79
:1021C000FEE700000FB410B5C2B045A8419001A8C9
:1021D000419A4499FEF716F90020419000BF094842
:1021E00002F02EFA2128FAD001A8FEF71DF984B2D8
:1021F000224601A9034802F047FC42B010BC5DF83A
:1022000014FB0000F801002030B50246854C8869B7
:10221000A04200D000BF00BF92F83C00012801D1CD
:10222000022030BD012082F83C0000BF0868092868
:1022300016D91068C0680C780A3C04EB44050724E2
:10224000AC40A0431468E0600C780A3C04EB440402
:102250008868A0401468E46820431468E06013E0D4
:10226000106800690C7804EB44050724AC40A043D7
:10227000146820610C7804EB44048868A04014685A
:1022800024692043146820611068806B20F440109A
:102290001468A0631068846B088A401E44EA0050EA
:1022A0001468A0630879C01C0C7C001B00EB800440
:1022B0001F20A0401468A46B8443106884630879CD
:1022C000C01C0C7C001B00EB8004088880B2A0407E
:1022D0001468A46B20431468A063524C8869A04220
:1022E00018D01068806820F470201468A06010680E
:1022F00080688C6920431468A0601068806820F4AE
:1023000040101468A06010688068CC69204314688D
:10231000A0600BE01068806820F470201468A06052
:102320001068806820F440101468A060487D30B1C7
:102330001068406840F480601468606005E01068D0
:10234000406820F4806014686060087D30B11068D7
:10235000406840F480501468606005E01068406890
:1023600020F48050146860604868012804D0022876
:102370000FD0032827D119E0106840696FF30B00D4
:102380001468606110684069CC682043146860611B
:1023900026E0106880696FF30B001468A061106874
:1023A0008069CC6820431468A06119E01068C06996
:1023B0006FF30B001468E0611068C069CC682043BB
:1023C0001468E0610CE01068006A6FF30B00146899
:1023D00020621068006ACC6820431468206200BF45
:1023E00000BF114B114C1068A04206D1086812289A
:1023F00003D1586840F4800058600C4C1068A0422B
:1024000009D10868102802D00868112803D158683B
:1024100040F40000586000BF002082F83C0000BF7C
:1024200000BFFEE601000F00002301400020014034
:1024300010B52DED028B04461D48844235D1012193
:1024400000F044F880B208EE100A0221184800F0AB
:102450003DF880B208EE900AB8EE480A9FED151AD2
:10246000C0EE010A144890ED001A9FED140A10EE18
:10247000810ADFED130A80EE201A124880ED001A5F
:10248000B8EE680A9FED0B1AC0EE010A0A4890EDFB
:10249000001A9FED0A0A10EE810ADFED090A80EEAC
:1024A000201A094880ED001A00BFBDEC028B10BD58
:1024B0008400002000F07F45580000203333D33FD4
:1024C000000048425C0000206000002008B5024681
:1024D00000200090401F13681860012911D00229C4
:1024E0000BD0032905D004290FD11068806C00900F
:1024F0000CE01068406C009008E01068006C0090E0
:1025000004E01068C06B009000E000BF00BF0098BE
:1025100008BD000038B501460020009000220023CD
:1025200000BF91F83C00012801D1022038BD0120F4
:1025300081F83C0000BF0868806800F00100A0B985
:102540000868806840F001000D68A86035480068A0
:10255000354DB0FBF5F000EB4000009002E0009834
:10256000401E009000980028F9D10868806800F0AB
:10257000010000284BD0086C42F20105A84340F44A
:1025800080500864086C00F4807008B9002048642A
:1025900000BF002081F83C0000BF401F0D6828608C
:1025A000224C606800F01F00B0B90868806800F431
:1025B000401008B9012000E0002002460868406889
:1025C000012525EA90230AB303B30868806840F424
:1025D00080000D68A86022E00868806800F4401060
:1025E00008B9012000E00020024608684068012583
:1025F00025EA90230E4D0868A84210D132B12BB1C4
:102600000868806840F480000D68A86007E0086CE6
:1026100040F010000864486C40F00100486400205D
:1026200084E700001000002040420F00002301401A
:102630000020014038B50146002000900022002310
:1026400000BF91F83C00012801D1022038BD0120D3
:1026500081F83C0000BF0868806800F00100A0B964
:102660000868806840F001000D68A860384800687C
:10267000384DB0FBF5F000EB4000009002E0009810
:10268000401E009000980028F9D10868806800F08A
:102690000100002851D0086C42F20105A84340F423
:1026A00080500864086C00F4807008B90020486409
:1026B00000BF002081F83C0000BF401F0D6828606B
:1026C0000868406840F080000D686860224C6068CF
:1026D00000F01F00B0B90868806800F4401008B925
:1026E000012000E00020024608684068012525EA34
:1026F00090230AB303B30868806840F480000D6833
:10270000A86022E00868806800F4401008B9012041
:1027100000E00020024608684068012525EA902371
:102720000E4D0868A84210D132B12BB108688068FC
:1027300040F480000D68A86007E0086C40F01000CD
:102740000864486C40F00100486400207EE7000007
:102750001000002040420F000023014000200140F3
:1027600038B502460020009000BF92F83C000128D6
:1027700001D1022038BD012082F83C0000BF08686A
:10278000092816D91068C0680C780A3C04EB440587
:102790000724AC40A0431468E0600C780A3C04EBCA
:1027A00044048868A0401468E46820431468E0602A
:1027B00013E0106800690C7804EB44050724AC4072
:1027C000A043146820610C7804EB44048868A0409E
:1027D000146824692043146820614868072817D2C8
:1027E0001068406B0C79641E04EB84051F24AC4018
:1027F000A04314686063088880B20C79641E04EBFF
:102800008404A0401468646B20431468606331E062
:1028100048680D2817D21068006B0C79E41F04EB90
:1028200084051F24AC40A04314682063088880B24C
:102830000C79E41F04EB8404A0401468246B20434B
:102840001468206316E01068C06A0C790D3C04EB34
:1028500084051F24AC40A0431468E062088880B25D
:102860000C790D3C04EB8404A0401468E46A204316
:102870001468E062194B1A4C1068A04206D108682F
:10288000122803D1586840F480005860144C106836
:10289000A0421CD10868102802D00868112816D15F
:1028A000586840F400005860086810280FD10D489F
:1028B00000680D4CB0FBF4F000EB8000400000908D
:1028C00002E00098401E009000980028F9D100BF57
:1028D000002082F83C0000BF00BF4BE7002301400E
:1028E000002001401000002040420F007047704758
:1028F0002DE9F0410446002500262068076820687D
:10290000D0F8048007F0020508F0200695B38EB3D6
:10291000206C00F0100018B9206C40F400702064A6
:102920002068806800F04050E8B9207ED8B920685F
:10293000C06A00F4700020B12068806800F48060F4
:1029400088B92068406820F0200021684860206C29
:1029500020F480702064206C00F4805018B9206C42
:1029600040F0010020642046FFF7C0FF6FF0120026
:102970002168086007F0040508F08006E5B3DEB3BF
:10298000206C00F0100018B9206C40F40050206456
:102990002068806800F4401038BB2068806B00F429
:1029A000401020B12068806800F48060E8B9206899
:1029B000406800F48060C0B92068806800F0405032
:1029C00098B9207E88B92068406820F0800021688E
:1029D0004860206C20F480502064206C00F48070EB
:1029E00018B9206C40F0010020642046FFF720FD5C
:1029F0006FF00C002168086007F0010508F0400640
:102A000085B17EB12068006800F0010050B1206CF3
:102A100040F480302064204600F050F86FF0010050
:102A20002168086007F0200508F080667DB176B166
:102A3000606C40F0020060646FF020002168086064
:102A40002046FFF754FF6FF0200021680860BDE8C2
:102A5000F081000070B5044600250CB9012070BD5E
:102A60001549A06A884200D000BF206C30B92046CA
:102A700000F026F80020606484F83C00206C00F030
:102A8000100088B9206C20F4885040F002002064C7
:102A90002046FFF755F900206064206C20F002000A
:102AA00040F00100206400E0012500BF002084F810
:102AB0003C0000BF2846D2E70100000F704700002D
:102AC00010B586B00446142101A8FDF7CCFC1D49C1
:102AD0002068884233D100BF002000901A48006867
:102AE00040F48070184908600846006800F480705F
:102AF000009000BF00BF00BF0020009012481438B3
:102B0000006840F001001049143908600846006868
:102B100000F00100009000BF00BF282001900320BA
:102B200002900020039001A9084800F06FFA0022EB
:102B30001146122000F02CFD122000F019FD06B005
:102B400010BD000000200140443802400000024057
:102B500070B50446A56D00F061FB064694F835009B
:102B6000022808D08020606500BF002084F834006F
:102B700000BF012070BD2068006820F016002168A9
:102B800008602068406920F0800021684861206C5E
:102B900008B9A06C28B12068006820F008002168FE
:102BA00008602068006820F001002168086010E0DB
:102BB00000F034FB801B05280BD920206065032022
:102BC00084F8350000BF002084F8340000BF0320E3
:102BD000D0E72068006800F001000028E8D194F8F0
:102BE0005C103F208840A860012084F8350000BFB9
:102BF000002084F8340000BF00BFBBE7014691F815
:102C00003500022803D08020486501207047052048
:102C100081F835000868006820F001000A6810603B
:102C20000020F3E7F8B50446002000908C480068C7
:102C30004FF41651B0FBF1F7A56D2E6894F85C10B7
:102C400008208840304098B12068006800F00400F7
:102C500070B12068006820F004002168086094F8D2
:102C60005C1008208840A860606D40F0010060653D
:102C700094F85C1001208840304068B120684069B9
:102C800000F0800040B194F85C1001208840A860FA
:102C9000606D40F00200606594F85C10042088408C
:102CA000304068B12068006800F0020040B194F83C
:102CB0005C1004208840A860606D40F004006065EE
:102CC00094F85C1010208840304078B32068006889
:102CD00000F0080050B394F85C1010208840A86001
:102CE0002068006800F4802080B12068006800F44B
:102CF000002028B9206CC8B12046216C884715E017
:102D0000A06C98B12046A16C88470FE0206800684D
:102D100000F4807028B92068006820F0080021685D
:102D20000860206C10B12046216C884794F85C1034
:102D3000202088403040002865D02068006800F0DE
:102D4000100000285FD094F85C1020208840A86014
:102D500094F83500052828D12068006820F0160076
:102D6000216808602068406920F08000216848617F
:102D7000206C08B9A06C28B12068006820F0080019
:102D80002168086094F85C103F208840A86001200A
:102D900084F8350000BF002084F8340000BF206DA7
:102DA00010B12046216D8847F8BD2068006800F406
:102DB000802080B12068006800F4002028B9606C91
:102DC00010B12046616C88471DE0E06BD8B1204609
:102DD000E16B884717E02068006800F4807068B9EC
:102DE0002068006820F0100021680860012084F845
:102DF000350000BF002084F8340000BFE06B10B144
:102E00002046E16B8847606D38B3606D00F00100CB
:102E1000F0B1052084F835002068006820F001003A
:102E20002168086000BF0098401C0090B84200D99B
:102E300005E02068006800F001000028F3D100BF21
:102E4000012084F8350000BF002084F8340000BF62
:102E5000E06C10B12046E16C884700BFA4E7000099
:102E6000100000202DE9F0410446002500F0D6F9BD
:102E7000074614B90120BDE8F081606A00B100BFC7
:102E8000022084F8350000BF002084F8340000BF21
:102E90002068006820F00100216808600AE000F066
:102EA000BDF9C01B052805D920206065032084F8E2
:102EB0003500E0E72068006800F001000028EED14E
:102EC0002068056821480540D4E901010843E1680C
:102ED00008432169084361690843A1690843E1691E
:102EE0000843216A08430543606A042803D1D4E9F2
:102EF0000B0108430543206805602068456925F0FB
:102F00000705606A0543606A04280DD1A06A05437D
:102F1000E06A48B12046FFF7E5F828B14020606537
:102F2000012084F83500A6E7206845612046FFF7B8
:102F3000BFF8064694F85C103F208840B06000203F
:102F40006065012084F83500002094E73F8010F090
:102F50002DE9F04704460D4616461F464FF000087F
:102F6000D4F8589000BF94F83400012802D1022010
:102F7000BDE8F087012084F8340000BF94F83500E4
:102F8000012825D1022084F83500002060653B46E9
:102F9000324629462046FFF7FAF894F85C103F20A5
:102FA0008840C9F808002068006840F016002168D1
:102FB0000860206C28B12068006840F00800216893
:102FC00008602068006840F001002168086006E0A1
:102FD00000BF002084F8340000BF4FF002084046D4
:102FE000C6E7000070B5044600F018F9064625460D
:102FF000681C10B104480078054400BF00F00EF9C9
:10300000801BA842FAD370BD0C000020F8B5024620
:103010000B460025002400200021D6E0012606FAF8
:1030200001F51E6806EA0504AC4274D11E7906F06B
:103030000306012E04D01E7906F00306022E13D1DA
:1030400090684F000326BE40B0434F00DE68BE408C
:1030500030439060506801268E40B0431E79C6F31D
:1030600000168E40304350601E7906F00306032E92
:1030700009D0D0684F000326BE40B0434F009E6881
:10308000BE403043D0601E7906F00306022E13D1F5
:10309000CF0802F1200656F827004E07F70E0F263C
:1030A000BE40B0434F07FF0E1E69BE403043CF08FD
:1030B00002F1200646F8270010684F000326BE40A4
:1030C000B0431E7906F003064F00BE403043106047
:1030D0005E6806F44036002E76D000BF00260096CB
:1030E0003C4E366846F480463A4F3E603E4636686F
:1030F00006F48046009600BF00BF374E8F0856F892
:1031000027008E07370F0F26BE40B043334EB24222
:1031100002D1002624E057E0314EB24201D101260F
:103120001EE0304EB24201D1022619E02E4EB242CC
:1031300001D1032614E02D4EB24201D104260FE046
:103140002B4EB24201D105260AE02A4EB24201D1ED
:10315000062605E0284EB24201D1072600E00826E7
:103160008F073F0FBE4030431B4E8F0846F82700A5
:10317000224E3068A0435E6806F4801606B12043F4
:103180001E4E3060361D3068A0435E6806F400169F
:1031900006B12043194E361D3060184E361F306878
:1031A000A0435E6806F4003606B12043134E361F76
:1031B0003060361F3068A0435E6806F4803606B182
:1031C00020430E4E083E3060491C1029FFF426AF04
:1031D000F8BD0000443802400838014000000240B9
:1031E0000004024000080240000C024000100240AF
:1031F0000014024000180240001C0240083C01403C
:10320000024613690B400BB1012000E0002070471B
:103210000AB1816101E00B048361704701480068D5
:10322000704700000400002070B504460CB901206E
:1032300070BD94F83D0028B9002084F83C00204679
:1032400000F0DAF8242084F83D002068006820F0BF
:103250000100216808602068006840F4004021688F
:1032600008602068006820F400402168086000F0D1
:10327000A9FA05465C496068884206D85B488542E1
:1032800001D2012007E0002005E05948854201D223
:10329000012000E00020012800D1C9E75548B5FB16
:1032A000F0F62068406820F03F0030432168486015
:1032B0004D496068884201D8701C07E04FF4967051
:1032C00070434FF47A71B0FBF1F0401C2168096A39
:1032D00021F03F0108432168086243496068884241
:1032E00014D8681E61684900B0FBF1F0401CC0F3BF
:1032F0000B00042801D204203DE0681E61684900EB
:10330000B0FBF1F0401CC0F30B0034E0A06838B90A
:10331000681E616801EB4101B0FBF1F0401C0AE05E
:10332000681E616801EBC10202EB0111B0FBF1F014
:10333000401C40F48040C0F30B0008B901201AE0A3
:10334000A06848B9681E616801EB4101B0FBF1F06B
:10335000401CC0F30B000CE0681E616801EBC10269
:1033600002EB0111B0FBF1F0401CC0F30B0040F484
:10337000804040F400402168C9694CF6FF729143D7
:1033800008432168C861D4E9070108432168096836
:1033900021F0C001084321680860D4E90310084304
:1033A0002168896848F2FF329143084321688860A8
:1033B000D4E9050108432168C96821F0FF010843E9
:1033C0002168C8602068006840F00100216808603A
:1033D00000202064202084F83D000020206384F831
:1033E0003E0000BF24E70000A086010080841E008C
:1033F00000093D0040420F0010B586B0044614217C
:1034000001A8FDF730F81B49206888422FD100BF82
:10341000002000901848006840F02000164908601D
:103420000846006800F02000009000BF00BF0320A5
:1034300001901220029000200390032004900420A9
:10344000059001A90D48FFF7E1FD00BF00200090A5
:1034500009481030006840F48000074910310860C6
:103460000846006800F48000009000BF00BF06B06E
:1034700010BD0000005800403038024000140240E7
:103480000348006803490978084401490860704707
:10349000040000200C00002010B50D48006840F426
:1034A00000700B4908600846006840F480600860BE
:1034B0000846006840F480700860032000F0A6F819
:1034C000032000F007F800F02BF8002010BD0000EA
:1034D000003C024070B504460E4800784FF47A7103
:1034E000B1FBF0F00C490968B1FBF0F5284600F09B
:1034F0002FFC08B1012070BD102C07D200222146FC
:10350000501E00F045F80548046001E00120F2E794
:103510000020F0E70C000020100000200800002030
:1035200008B500BF002000901048006840F48040BB
:103530000E4908600846006800F48040009000BF13
:1035400000BF00BF00200090081F006840F08050BE
:10355000091F08600846006800F08050009000BF16
:1035600000BF052000F052F808BD000044380240BA
:1035700001460846002809DB00F01F0301229A409B
:1035800043099B0003F1E023C3F8002100BF70470B
:103590002DE9F05F80460D461646002702F080FABE
:1035A000074639462A46334601F00700C0F1070AAC
:1035B000BAF1040F02D94FF0040A01E0C0F1070A82
:1035C000D14600F1040ABAF1070F02D24FF0000A07
:1035D00001E0A0F1030AD4464FF0010A0AFA09FA01
:1035E000AAF1010A0AEA020A0AFA0CFA4FF0010BE0
:1035F0000BFA0CFBABF1010B0BEA030B4AEA0B04D1
:103600002146404602F054FABDE8F09F00BF00F0AA
:103610000702064B19684FF6FF031940044B0B4392
:1036200043EA0221014B196000BF70470CED00E036
:103630000000FA0570B504460D460CB9012070BDB6
:103640005848006800F00700A84209D255490D709B
:103650000846006800F00700A84201D00120EEE70C
:10366000207800F0020002281DD1207800F004002C
:10367000042805D14C48006840F4E0504A490860ED
:10368000207800F00800082805D14748006840F479
:103690006040454908604448006820F0F000A16897
:1036A000084341490860207800F00100A8B3606831
:1036B000012807D13C4808380068C0F34040B8B939
:1036C0000120BCE76068022802D06068032807D1A7
:1036D000354808380068C0F3406048B90120AEE7BB
:1036E000314808380068C0F3400008B90120A6E757
:1036F0002D48006820F00300616808432A490860EB
:10370000FFF78CFD064609E0FFF788FD801B41F2BC
:103710008831884202D9032091E707E022480068F7
:1037200000F00C006168B0EB810FEDD11D4800681E
:1037300000F00700A84209D91A490D700846006830
:1037400000F00700A84201D0012078E7207800F0BF
:103750000400042807D11448006820F4E050E16810
:10376000084311490860207800F00800082808D1B3
:103770000D48006820F46040216940EAC1000A4910
:10378000086000F03FF808490968C1F30311074ACF
:10379000515CC8400649086006480068FFF79AFE79
:1037A00000204CE7003C0240083802402E7100081F
:1037B0001000002008000020014800687047000049
:1037C0001000002000B5FFF7F7FF04490968C1F3B6
:1037D0008221034A515CC84000BD00000838024005
:1037E0003E71000800B5FFF7E7FF04490968C1F31F
:1037F0004231034A515CC84000BD00000838024015
:103800003E7100082DE9F047002400250026A1465E
:103810002548006800F00C0020B1042805D00828D5
:103820003AD105E0DFF8849039E0DFF8849036E0A3
:103830001D48001F006800F03F041B48001F00687F
:1038400000F4800078B11A481749091F0968C1F3CC
:103850008811A0FB01700146224600233846FCF780
:1038600059FD05460EE011480F49091F0968C1F3CB
:103870008811A0FB01700146224600233846FCF760
:1038800049FD05460848001F0068C0F30140401C80
:103890004600B5FBF6F902E0DFF8109000BF00BF6C
:1038A0004846BDE8F0870000083802400024F400D4
:1038B00000127A00F8B504460CB90120F8BD207852
:1038C00000F00100002874D0F948006800F00C00F6
:1038D00004280DD0F648006800F00C00082813D129
:1038E000F348001F006800F48000B0F5800F0BD192
:1038F000EF4808380068C0F34040002859D060689D
:10390000002856D10120D9E700BF6068B0F5803F9C
:1039100008D1E7480838006840F48030E4490839A5
:1039200008601EE06068B0F5A02F0DD1E0480838AF
:10393000006840F48020DE490839086008460068C5
:1039400040F4803008600CE0D9480838006820F462
:103950008030D749083908600846006820F4802084
:10396000086000BF606890B1FFF758FC054606E0AC
:10397000FFF754FC401B642801D903209EE7CC4884
:1039800008380068C0F340400028F1D011E0FFF78C
:1039900045FC054606E0FFF741FC401B642801D9C1
:1039A00003208BE7C24808380068C0F34040002875
:1039B000F1D1207800F0020002285FD1BC480068F5
:1039C00000F00C0058B1BA48006800F00C0008285C
:1039D0001CD1B748001F006800F48000B0B9B4489B
:1039E00008380068C0F3400020B1E068012801D029
:1039F000012063E7AE480838006820F0F80021692C
:103A000040EAC100AA490839086037E0E06800B31D
:103A10000120A8490860FFF701FC054606E0FFF712
:103A2000FDFB401B022801D9032047E7A0480838C6
:103A30000068C0F340000028F1D09D4808380068B5
:103A400020F0F800216940EAC1009949083908606E
:103A500014E0002097490860FFF7E0FB054606E008
:103A6000FFF7DCFB401B022801D9032026E7904822
:103A700008380068C0F340000028F1D1207800F039
:103A8000080008282CD16069A8B101208A49086083
:103A9000FFF7C4FB054606E0FFF7C0FB401B02280A
:103AA00001D903200AE782486C300068C0F3400067
:103AB0000028F1D014E000207F490860FFF7AEFB3A
:103AC000054606E0FFF7AAFB401B022801D90320A8
:103AD000F4E677486C300068C0F340000028F1D16C
:103AE000207800F00400042870D100277048383096
:103AF000006800F0805090B900BF002000906C4832
:103B00003830006840F08050694938310860084614
:103B1000006800F08050009000BF00BF0127674898
:103B2000006800F48070B0B96448006840F48070A8
:103B300062490860FFF772FB054606E0FFF76EFB7F
:103B4000401B022801D90320B8E65C48006800F455
:103B500080700028F2D000BFA068012808D1544826
:103B60006830006840F001005149683108601DE08C
:103B7000A06805280DD14E486830006840F0040068
:103B80004B49683108600846006840F00100086051
:103B90000CE047486830006820F001004449683173
:103BA00008600846006820F00400086000BFA068B4
:103BB000A8B1FFF733FB054609E0FFF72FFB401BD9
:103BC00041F28831884202D9032077E626E038485E
:103BD00068300068C0F340000028EED013E0FFF723
:103BE0001DFB054608E0FFF719FB401B41F2883139
:103BF000884201D9032061E62D4868300068C0F38F
:103C000040000028EFD1012F07D129483830006843
:103C100020F0805026493831086000BFA069002894
:103C200045D02348006800F00C0008285DD0A0694A
:103C3000022845D100201F490866FFF7EFFA054624
:103C400006E0FFF7EBFA401B022801D9032035E616
:103C5000174808380068C0F340600028F1D1D4E963
:103C600007010843616A40EA81110122A06AC2EBA0
:103C7000500041EA00412C20005D41EA00600C49FF
:103C8000091F086001200B490866FFF7C7FA0546BF
:103C900006E0FFF7C3FA401B022801D903200DE616
:103CA000034808380068C0F340600028F1D049E0BC
:103CB0000838024000004742800E47420070004032
:103CC000002021490866FFF7A9FA054606E0FFF73C
:103CD000A5FA401B022801D90320EFE51B48006824
:103CE000C0F340600028F2D12CE0A069012800D187
:103CF000E4E51648001D0668A069012820D006F4F6
:103D00008001E06981421BD106F03F01206A8142B7
:103D100016D147F6C0703040616AB0EB811F0FD1F9
:103D200006F440310122A06AC2EB5000B1EB004F13
:103D300006D106F070612C20005DB1EB006F01D060
:103D40000120BBE50020B9E50000474200380240F1
:103D500070B504462546681EB0F1807F01D301206E
:103D60000FE0681E4FF0E02148610F214FF0FF3057
:103D700001F09EFE00204FF0E021886107200861DD
:103D8000002070BD7047704710B50346002200BF89
:103D900093F83C00012801D1022010BD012083F8D6
:103DA0003C0000BF22F0FF00CC6840EA040222F48D
:103DB00040708C6840EA040222F480604C6840EA5B
:103DC000040222F400600C6840EA040222F48050ED
:103DD0000C6940EA040222F400504C6940EA0402F3
:103DE00022F48040CC6940EA04021868426400BFB3
:103DF000002083F83C0000BF00BFCEE730B502468C
:103E00000B4600BF92F83C00012801D1022030BDD2
:103E1000012082F83C0000BF022082F83D001068BB
:103E200044681068816824F07004186804431068BE
:103E30004460184D1068A8421BD01068B0F1804F44
:103E400017D0154D1068A84213D0144D1068A84221
:103E50000FD0134D1068A8420BD0124D1068A84225
:103E600007D0114D1068A84203D0104D1068A84229
:103E700005D121F08001586801431068816001205C
:103E800082F83D0000BF002082F83C0000BF00BF68
:103E9000BDE70000000001400004004000080040B1
:103EA000000C0040000401400040014000180040A8
:103EB00010B504460CB9012010BD94F83D0028B996
:103EC000002084F83C00204600F026F8022084F808
:103ED0003D00211D206801F0ABF9012084F8460067
:103EE00000BF84F83E0001213F20015540200155CC
:103EF0004120015500BF00BF012084F8420043204B
:103F00000155442001554520015500BF012084F88A
:103F10003D000020D0E7000010B586B00446142113
:103F200001A8FCF7A0FA3549206888420FD100BFEC
:103F3000002000903248006840F0010030490860DD
:103F40000846006800F00100009000BF54E02068BF
:103F5000B0F1804F32D100BF002000902848001FF0
:103F6000006840F001002649091F08600846006803
:103F700000F00100009000BF00BF00BF00200090D3
:103F80001F481438006840F001001D4914390860CA
:103F90000846006800F00100009000BF00BF01204B
:103FA0000190022002900020039003200490012041
:103FB000059001A91348FFF729F81DE01249206870
:103FC000884219D100BF002000900D48001F0068F2
:103FD00040F002000A49091F08600846006800F026
:103FE0000200009000BF00BF002211461D20FFF715
:103FF000CFFA1D20FFF7BCFA06B010BD000001404B
:10400000443802400000024000040040014691F89C
:104010003D00012801D001207047022081F83D00B9
:104020000868C06840F001000B68D8601A4B086847
:1040300098421BD00868B0F1804F17D0174B086822
:10404000984213D0164B086898420FD0154B086859
:1040500098420BD0144B0868984207D0134B08685D
:10406000984203D0124B086898420CD108688068C7
:1040700000F00702062A0CD00868006840F0010032
:104080000B68186005E00868006840F001000B68E4
:1040900018600020C0E7000000000140000400405C
:1040A00000080040000C00400004014000400140B6
:1040B000001800402DE9F04104460D46002700BFDE
:1040C00094F83C00012802D10220BDE8F0810120D3
:1040D00084F83C0000BF022084F83D002068866818
:1040E00026F0770626F47F462068866028685028E8
:1040F00033D00CDC202850D004DC00284BD0102812
:1041000051D149E0302849D040284CD139E06028CD
:104110002DD0702807D0B0F5805F03D0B0F5005FD8
:1041200041D10DE041E0D5E902136A68206801F051
:10413000FCF82068866846F077062068866034E0E0
:10414000D5E902136A68206801F0EFF820688068FA
:1041500040F480402168886027E0EA686968206848
:1041600001F0D4F95021206801F0EAF81DE0EA6876
:104170006968206801F0DDF96021206801F0E0F84D
:1041800013E0EA686968206801F0C0F940212068FE
:1041900001F0D6F809E000BF00BF00BF2968206821
:1041A00001F0CEF801E0012700BF00BF012084F834
:1041B0003D0000BF002084F83C0000BF384684E783
:1041C000704710B5044620680069C0F34000D8B1BC
:1041D0002068C068C0F34000B0B16FF002002168F1
:1041E0000861012020772068806900F0030018B181
:1041F0002046FFF7E5FF05E0204600F0DFF8204607
:1042000000F093F90020207720680069C0F3800057
:10421000D8B12068C068C0F38000B0B16FF004006E
:1042200021680861022020772068806900F44070CE
:1042300018B12046FFF7C4FF05E0204600F0BEF8A5
:10424000204600F072F90020207720680069C0F352
:10425000C000D8B12068C068C0F3C000B0B16FF032
:10426000080021680861042020772068C06900F0F8
:10427000030018B12046FFF7A3FF05E0204600F039
:104280009DF8204600F051F9002020772068006951
:10429000C0F30010D8B12068C068C0F30010B0B1FE
:1042A0006FF0100021680861082020772068C0693D
:1042B00000F4407018B12046FFF782FF05E0204669
:1042C00000F07CF8204600F030F9002020772068CC
:1042D000006900F0010058B12068C06800F00100DA
:1042E00030B16FF0010021680861204600F0A4F9A8
:1042F00020680069C0F3C01058B12068C068C0F3DE
:10430000C01030B16FF08000216808612046FFF7CF
:1043100039FD20680069C0F3801058B12068C0687A
:10432000C0F3801030B16FF0400021680861204672
:1043300000F083F920680069C0F3401058B120688C
:10434000C068C0F3401030B16FF0200021680861F0
:104350002046FFF718FD10BD10B586B004461421A5
:1043600001A8FCF780F81249206888421DD100BFDF
:10437000002000900F48006840F010000D490860D0
:104380000846006800F01000009000BF00BF4FF426
:1043900028500190022002900020039004900120F8
:1043A000059001A90448FEF731FE06B010BD0000DB
:1043B00000000140303802400010024070472DE9F3
:1043C000F04104460D461646002700BF94F83C0015
:1043D000012802D10220BDE8F081012084F83C00D0
:1043E00000BF36B1042E1BD0082E31D00C2E5ED16A
:1043F00045E02946206800F0ADFF2068806940F064
:104400000800216888612068806920F00400216824
:10441000886120688069296908432168886148E0CB
:104420002946206800F0CEFF2068806940F40060D3
:10443000216888612068806920F480602168886133
:1044400020688069296940EA01202168886130E09C
:104450002946206800F0F4FF2068C06940F0080099
:104460002168C8612068C06920F004002168C86123
:104470002068C069296908432168C86119E0294694
:10448000206801F019F82068C06940F400602168D4
:10449000C8612068C06920F480602168C861206814
:1044A000C069296940EA01202168C86101E001274B
:1044B00000BF00BF00BF002084F83C0000BF3846AA
:1044C00089E710B504460CB9012010BD94F83D00F1
:1044D00028B9002084F83C00204600F025F802208E
:1044E00084F83D00211D206800F0A2FE012084F820
:1044F000460000BF84F83E0001213F2001554020C6
:1045000001554120015500BF00BF012084F8420041
:1045100043200155442001554520015500BF01208D
:1045200084F83D000020D0E77047704770B504461E
:104530000D4615B994F83E000BE0042D02D13F2042
:10454000005D06E0082D02D14020005D01E0412021
:10455000005D012801D0012070BD1DB9022084F842
:104560003E000EE0042D03D102213F20015508E05A
:10457000082D03D102214020015502E002214120F3
:10458000015501222946206800F0BEFE234920681B
:10459000884203D022492068884201D1012000E0EE
:1045A000002028B12068406C40F400402168486435
:1045B0001A49206888421BD02068B0F1804F17D07C
:1045C00018492068884213D01749206888420FD0C4
:1045D0001649206888420BD011492068884207D0CC
:1045E00013492068884203D01249206888420CD1C0
:1045F0002068806800F00706062E0CD0206800684E
:1046000040F001002168086005E02068006840F083
:1046100001002168086000209EE7000000000140C2
:10462000000401400004004000080040000C00406D
:1046300000400140001800407047704770477047C5
:1046400001460022002391F83D2091F83E3042EAD5
:10465000030070472DE9F84F04462068056820687C
:10466000C668206847694FF00009CA4605F00F097F
:10467000B9F1000F0AD105F0200038B106F0200092
:1046800020B1204601F027F8BDE8F88FB9F1000FFE
:104690007CD007F0010018B906F49070002875D09E
:1046A00005F0010030B106F4807018B1206C40F0C4
:1046B0000100206405F0040030B107F0010018B1DA
:1046C000206C40F00200206405F0020030B107F0D9
:1046D000010018B1206C40F00400206405F00800CF
:1046E00048B106F0200010B907F0010018B1206CA5
:1046F00040F008002064206C002846D005F020001F
:1047000028B106F0200010B1204600F0E4FF206838
:104710004069C0F3801A206C00F0080010B9BAF1AB
:10472000000F2DD0204600F07DFF2068406900F08A
:104730004000402820D100BF00BF2168143151E85B
:10474000001F21F040002168143141E80002002AD6
:10475000F3D100BFA06B50B17548A16B0865A06B89
:10476000FEF74CFA88B1A06B016D88470DE020463A
:10477000FFF765FF09E009E02046FFF760FF04E06E
:104780002046FFF75CFF002020647DE7206B0128B6
:1047900076D105F01000002872D006F01000002835
:1047A000FAD000BF002000902068006800902068C8
:1047B0004068009000BF00BF2068406900F04000E2
:1047C00040285ED1A06B006840681FFA80F8B8F1FD
:1047D000000F54D0A08D404551DDA4F82E80A06B71
:1047E000C069B0F5807F43D000BF00BF21680C31A5
:1047F00051E8001F21F4807021680C3141E800026B
:10480000002AF3D100BF00BF00BF2168143151E876
:10481000001F21F001002168143141E80002002A44
:10482000F3D100BF00BF00BF2168143151E8001F61
:1048300021F040002168143141E80002002AF3D140
:1048400000BF202084F83E000020206300BF00BF8E
:1048500021680C3151E8001F21F0100021680C3153
:1048600041E80002002AF3D100BFA06BFEF770F907
:10487000A08DE28D801A81B22046FFF7DFFE03E7AC
:1048800040E0A08DE18D401A1FFA80F8E08DC0B3A2
:10489000B8F1000F35D000BF00BF21680C3151E8DE
:1048A000001F21F4907021680C3141E80002002AB9
:1048B000F3D100BF00BF00BF2168143151E8001FD1
:1048C00021F001002168143141E80002002AF3D1EF
:1048D00000BF202084F83E000020206300BF00BFFE
:1048E00021680C3151E8001F21F0100021680C31C3
:1048F00041E80002002AF3D100BF41462046FFF7FD
:104900009DFEC1E605F0800030B106F0800018B1D0
:10491000204601F073F8B7E605F0400030B106F02C
:10492000400018B1204600F0B3FEADE600BFABE694
:104930005B55000810B504460CB9012010BDA069F4
:1049400000B100E000BF94F83D0028B9002084F8D1
:104950003C00204600F028F8242084F83D00206820
:10496000C06820F400502168C860204600F030FF85
:104970002068006920F4904021680861206840693F
:1049800020F02A00216848612068C06840F4005087
:104990002168C86000202064202084F83D0084F84D
:1049A0003E000020CAE7000010B586B0044614217E
:1049B00001A8FBF758FD2E492068884256D100BF58
:1049C000002000902B48006840F010002949086042
:1049D0000846006800F01000009000BF00BF00BF54
:1049E0000020009023481438006840F0010021495D
:1049F000143908600846006800F00100009000BF0C
:104A000000BF4FF4C060019002200290002003908C
:104A1000032004900720059001A91748FEF7F6FA35
:104A20001648174908604FF000604860402114485C
:104A300081600021C1604FF480610161002141610A
:104A40008161C16101624162FEF70CFA08B1FDF7B4
:104A5000B5FB00BF0A486063846300BF00220121E8
:104A60002520FEF795FD2520FEF782FD06B010BD3E
:104A7000001001404438024000000240B864024087
:104A80003C02002070470000F7B50446154694F834
:104A90003D00202846D1019800B10DB90120FEBD8E
:104AA00000BF94F83C00012801D10220F7E7012063
:104AB00084F83C0000BF01982062A584E5840020B2
:104AC0002064212084F83D001748616BC8631748B3
:104AD000616B08641648616BC8640020616B0865EF
:104AE00001AE23681A1D31682B46606BFEF730FA61
:104AF0006FF040002168086000BF002084F83C008F
:104B000000BF00BF00BF2168143151E8001F41F011
:104B100080002168143141E80002002AF3D100BF6F
:104B20000020BCE70220BAE7BF550008175600086E
:104B30006F5500087047704700BFFEE70748D0ED8B
:104B4000000A9FED071A60EE810A9FED061A41EEFA
:104B5000000AB0EE600A80ED000A704714000020E1
:104B60006666663FCDCCCC3D00B58DB00020099087
:104B70000A900B900C90202101A8FBF774FC2948A7
:104B8000294908604FF48030486000212648816040
:104B9000012101610021017680F82010C1622349C2
:104BA00081620021C1600121C161002180F83010C3
:104BB00001214161FDF74EFF08B1FDF7FFFA032027
:104BC000099001200A9000200B9009A91648FDF7D2
:104BD000C7FD08B1FDF7F2FA032001900120029011
:104BE00002200590032003904FF4801008900020CD
:104BF00007908DF819008DF81800049001A90A4853
:104C0000FDF702FB08B1FDF7D9FA0520019002205B
:104C1000029001A90448FDF7F7FA08B1FDF7CEFAB2
:104C20000DB000BD00200140840000200100000FF5
:104C300008B500BF002000900A48006840F48000DA
:104C4000084908600846006800F48000009000BF32
:104C500000BF002201214620FEF79AFC4620FEF705
:104C600087FC08BD3038024000B587B0142102A887
:104C7000FBF7F9FB00BF002001904548006840F0B9
:104C80001000434908600846006800F010000190D9
:104C900000BF00BF00BF002001900846006840F040
:104CA000040008600846006800F00400019000BF9E
:104CB00000BF00BF002001900846006840F02000BF
:104CC00008600846006800F02000019000BF00BFA7
:104CD00000BF002001900846006840F08000086096
:104CE0000846006800F08000019000BF00BF00BFD0
:104CF000002001900846006840F001000860084666
:104D0000006800F00100019000BF00BF00BF00205C
:104D100001900846006840F00200086008460068FC
:104D200000F00200019000BF00BF01224FF4C061FB
:104D30001848FEF76DFA00224FF440611648FEF75E
:104D400067FA182002904FF4881003900020049016
:104D500002A91248FEF75AF94FF4C06002900120F0
:104D6000039004900220059002A90A48FEF74EF92C
:104D70004FF4406002901120039001200490022023
:104D8000059002A90448FEF741F907B000BD0000F4
:104D9000303802400014024000040240001002407B
:104DA00010B50B480B4908600B48486000210948C2
:104DB0008160C1604FF480410161002141618161E6
:104DC000C1610162FEF730FA08B1FDF7F7F910BDD5
:104DD00000580040CC000020801A060000B595B0B5
:104DE000002011901290139014900F9010901C219D
:104DF00008A8FBF738FB20216846FBF734FB3A484C
:104E00003A4908600020486020213848816041F616
:104E10003F71C1600021016141618161FFF748F884
:104E200008B1FDF7CBF94FF48050119011A92F482C
:104E3000FFF740F908B1FDF7C1F92C48FFF741FB36
:104E400008B1FDF7BBF970200F90002010900FA95A
:104E50002648FEF7D3FF08B1FDF7B0F960200890AF
:104E6000002009900A900B900C900D900E9000225B
:104E700008A91E48FFF7A3FA08B1FDF79FF904221D
:104E800008A91A48FFF79BFA08B1FDF797F908221D
:104E900008A91648FFF793FA08B1FDF78FF97020BB
:104EA000089041F63E7009900C2208A90F48FFF7C0
:104EB00086FA08B1FDF782F9002000900190029077
:104EC000039004904FF4005005900020079069462D
:104ED0000648FEF759FF08B1FDF770F90348FFF7E0
:104EE0003BFA15B000BD0000000001402001002089
:104EF00000B587B0002003900490059006900190C3
:104F000002904FF08040134908604F204860002114
:104F100010488160491EC160002101618161FEF776
:104F2000C7FF08B1FDF74AF94FF48050039003A979
:104F30000848FFF7BFF808B1FDF740F900200190DD
:104F4000029001A90348FEF759FF08B1FDF736F9B1
:104F500007B000BD6801002000B587B000200390B5
:104F6000049005900690019002901448144908603E
:104F70004F2048600021124881606321C1600021F8
:104F800001618161FEF794FF08B1FDF717F94FF455
:104F90008050039003A90A48FFF78CF808B1FDF789
:104FA0000DF900200190029001A90548FEF726FFA7
:104FB00008B1FDF703F907B000BD00000004004090
:104FC000B001002010B50B480B4908604FF4E130E8
:104FD0004860002108488160C16001610C21416185
:104FE00000218161C161FFF7A5FC08B1FDF7E6F87A
:104FF00010BD000000100140F801002000BFFEE7D6
:1050000000BFFEE7B0EE401AF0EE601A31EE613AF2
:10501000F0EE430A017E59B990ED043AD0ED013A21
:1050200063EEA03A90ED074A03EE843A80ED043A2D
:1050300090ED003A63EE202A90ED023AD0ED053A69
:1050400070EEE33A23EE233AD0ED073A83EE232ABB
:1050500090ED043A33EE223A33EE020AC0ED050A2F
:1050600090ED033AB4EEC03AF1EE10FA06D2012107
:10507000017690ED033AB0EE430A13E090ED033A67
:10508000B1EE433AB4EEC03AF1EE10FA08DD012178
:10509000017690ED033AB1EE433AB0EE430A01E0F7
:1050A00000210176704780ED000AC0ED010A80ED15
:1050B000021AC0ED031A80ED072A704710B50021CF
:1050C0000548FFF733FA04210348FFF72FFA0821B8
:1050D0000148FFF72BFA10BD2001002070477047F0
:1050E000DFED101A60EE211AFCEEE11A11EE900AC3
:1050F0000D4909684863DFED0B1A60EEA11AFCEE5A
:10510000E11A11EE900A084909688863DFED051A73
:1051100061EE211AFCEEE11A11EE900A02490968CB
:10512000C86370470000FA452001002010B5FEF763
:10513000A7F910BD00B593B0302107A8FBF793F98C
:10514000142102A8FBF78FF900BF0020019024482A
:10515000006840F08050224908600846006800F06E
:105160008050019000BF00BF00BF002001901D488B
:10517000006840F480401B4908600846006800F45D
:105180008040019000BF00BF0120079000040890FC
:1051900002200D9041050E9104210F91A021109144
:1051A000022111910421129107A8FEF783FB08B197
:1051B000FDF704F80F2002900220039000200490D5
:1051C0004FF4A05005904FF480500690052102A89E
:1051D000FEF730FA08B1FCF7F1FF13B000BD000094
:1051E00040380240007000400348006840F47000FE
:1051F000014908607047000088ED00E010B50A48DA
:10520000FEF7DFFF09480068401C084908600846AF
:1052100000680A2806DD00F0B1FD00F087FE0020DE
:105220000249086010BD0000B0010020000000200D
:1052300010B50268294B98420ED0B0F1804F0BD0C8
:10524000274B984208D0274B984205D0264B9842CE
:1052500002D0264B984203D122F070024B681A43C9
:105260001E4B984220D0B0F1804F1DD01C4B98426D
:105270001AD01C4B984217D01B4B984214D01B4B92
:10528000984211D01A4B98420ED01A4B98420BD02C
:10529000194B984208D0194B984205D0184B9842A8
:1052A00002D0184B984203D122F44072CB681A43C3
:1052B00022F080034C6943EA040202608B68C362F7
:1052C0000B688362054B984202D0084B984201D18B
:1052D0000B6903630123436110BD0000000001401E
:1052E0000004004000080040000C004000040140A1
:1052F00000400140004401400048014000180040C7
:10530000001C00400020004030B501F01F050124C2
:1053100004FA05F3046A9C430462046A01F01F0561
:1053200002FA05F52C43046230BD30B50C468168A5
:1053300021F47F4142EA032525432943816030BDA2
:105340000A46816821F0700142F007031943816029
:105350007047000030B5056A25F001050562026A54
:105360004368846924F0700424F003040D682C431E
:1053700022F002028D682A43104DA84200D103E0BA
:105380000F4DA84206D100BF22F00802CD682A4383
:1053900022F00402094DA84202D0094DA84207D1CB
:1053A00023F4807323F400734D692B438D692B43E1
:1053B000436084614D684563026230BD0000014076
:1053C0000004014030B5056A25F010050562026A47
:1053D0004368846924F4E04424F440740D6844EA8A
:1053E000052422F020028D6842EA0512124DA842DF
:1053F00000D103E0114DA84207D100BF22F0800286
:10540000CD6842EA051222F040020B4DA84202D0BC
:105410000A4DA84209D123F4806323F400634D6947
:1054200043EA85038D6943EA8503436084614D68DF
:105430008563026230BD00000000014000040140AD
:1054400030B5056A25F480750562026A4368C4694F
:1054500024F0700424F003040D682C4322F400723D
:105460008D6842EA0522124DA84200D103E0114D99
:10547000A84207D100BF22F40062CD6842EA0522AB
:1054800022F480620A4DA84202D00A4DA84209D1F6
:1054900023F4805323F400534D6943EA05138D69C7
:1054A00043EA05134360C4614D68C563026230BDC1
:1054B000000001400004014030B5056A25F4805524
:1054C0000562036A4468C26922F4E04222F4407231
:1054D0000D6842EA052223F400538D6843EA053340
:1054E000084DA84202D0084DA84204D124F48044BB
:1054F0004D6944EA85144460C2614D6805640362E5
:1055000030BD0000000001400004014030B50B46F2
:105510001446026A056A25F001050562816921F0D9
:10552000F00141EA041122F00A021A438161026289
:1055300030BD30B50B461446056A25F010050562EE
:105540008169026A21F4704141EA043122F0A0022B
:1055500042EA03128161026230BD70B50546AC6B50
:105560000020E085E0842046FFF769F870BD70B543
:1055700006460025B46B20684069C0F3C01594F856
:105580003D00212805D125B10020E084204600F00F
:105590008FF820684069C0F3801594F83E002228F7
:1055A00005D125B10020E085204600F03BF8206CB5
:1055B00040F0100020642046FFF741F870BD70B540
:1055C0000546AC6B2868006800F48070F8B90020CC
:1055D000E08400BF00BF2168143151E8001F21F0B2
:1055E00080002168143141E80002002AF3D100BF95
:1055F00000BF00BF21680C3151E8001F41F040009E
:1056000021680C3141E80002002AF3D102E0204673
:10561000FFF790FA70BD70B50446A56B2846FFF7FA
:105620008AFA70BD00BF00BF02680C3252E8002F3A
:1056300022F4907102680C3242E80013002BF3D17F
:1056400000BF00BF00BF0268143252E8002F22F0F2
:1056500001010268143242E80013002BF3D100BFAD
:10566000016B01290ED100BF00BF02680C3252E865
:10567000002F22F0100102680C3242E80013002BC8
:10568000F3D100BF202180F83E1000210163704754
:1056900010B504462068C06820F040002168C8604A
:1056A000202084F83D002046FFF744FA002010BD7A
:1056B00000BF00BF02680C3252E8002F22F0C00188
:1056C00002680C3242E80013002BF3D100BF202106
:1056D00080F83D107047F8B5044694F83E00222843
:1056E00073D1A068B0F5805F0CD1206950B9002556
:1056F000A66A20684068C0F308003080A06A801C59
:10570000A06215E0A56A0026A068B0F5805F03D00E
:10571000A06828B9206918B920684068287004E09A
:105720002068406800F07F002870A06A401CA062DA
:10573000E08D401E80B2E085002844D12068C0681A
:1057400020F020002168C8602068C06820F48070C4
:105750002168C8602068406920F001002168486124
:10576000202084F83E00206B012826D100202063F1
:1057700000BF00BF21680C3151E8001F21F010006C
:1057800021680C3141E80002002AF3D100BF2068F3
:10579000006800F0100010280AD100BF002000901F
:1057A00020680068009020684068009000BF00BF3B
:1057B000A18D2046FEF742FF02E02046FFF762F986
:1057C0000020F8BD01E00020FBE70220F9E700001F
:1057D0002DE9F84F04462068006920F44050E16844
:1057E0000843216808612169A0680843616908438A
:1057F000E169084300902068C06849F20C61884361
:10580000009908432168C8602068406920F440700E
:10581000A16908432168486176492068884203D01D
:1058200075492068884203D1FDF7DCFF814602E01C
:10583000FDF7C8FF8146E069B0F5004F6CD102204A
:105840006168A0FB015003461920A9FB00700146C6
:105850002A463846FAF75EFD6421B0FBF1F04FEAC4
:10586000001A02206168A0FB01510B461920A9FB18
:1058700000712A463846FAF74DFD834602206168DA
:10588000A0FB015003461920A9FB00712A463846A7
:10589000FAF740FD6421B0FBF1F000EBC00101EB31
:1058A0000010ABEB8000322101EBC0006421B0FBA3
:1058B000F1F000F0F8000AEB400A02206168A0FB5A
:1058C000015003461920A9FB007001462A463846BC
:1058D000FAF720FD834602206168A0FB01500346D1
:1058E0001920A9FB00712A463846FAF713FD6421F6
:1058F000B0FBF1F000EBC00101EB0010ABEB80005E
:10590000322101EBC0006421B0FBF1F000F0070090
:105910005044216888606AE004206168A0FB01505F
:1059200003461920A9FB007001462A463846FAF7BB
:10593000F1FC824604206168A0FB01500346192057
:10594000A9FB007001462A463846FAF7E3FC6421B9
:10595000B0FBF1F000EBC00101EB0010AAEB8000FE
:10596000322101EB00106421B0FBF1F000F0F00AED
:1059700004206168A0FB017003461920A9FB0051B7
:105980003A462846FAF7C6FC6421B0FBF1F00AEB70
:10599000001A04206168A0FB01510B461920A9FBE5
:1059A00000712A463846FAF7B5FC83460420616840
:1059B000A0FB015003461920A9FB007001462A46AE
:1059C0003846FAF7A7FC6421B0FBF1F000EBC00108
:1059D00001EB0010ABEB8000322101EB00106421E1
:1059E000B0FBF1F000F00F00504421688860BDE882
:1059F000F88F00000010014000140140014691F8AA
:105A00003D00212828D18868B0F5805F0BD1086956
:105A100048B90A6A1088C0F308000B685860086A21
:105A2000801C086205E00B6A581C086218780B6835
:105A30005860C88C401E80B2C88458B90868C068D5
:105A400020F080000B68D8600868C06840F0400013
:105A50000B68D860002070470220FCE710B50248B0
:105A6000FEF7F8FD10BD0000F801002000BFFEE7C2
:105A700003B401984100009850EAC12018BF0420E7
:105A80004A0D18BF40F0010040F2FF72B2EB515FC7
:105A900008BF40F00200012808BF052002B070478F
:105AA00002480068C0F30220704700000CED00E0DF
:105AB00010B5002804DB0A07130E054A135406E04C
:105AC0000A07140E034A00F00F031B1FD45410BD25
:105AD00000E400E018ED00E010B52DED040B86B0F9
